:040000008A15862AAD
:100006007B15FB1F0D280130F300F201F101F00111
:08001600FA0DF20CFF300800A6
:08001E00FA1FF2130030080084
:10002600103083120313FD00FD0B17280000080093
:0E003600F201F101F001F801F30100300800C1
:10004400FB14FB1F2C28FF30F300F200F100F0003A
:08005400FA0DF20CFF30080068
:04005C000000080098
:10006000083083120313FC002330FD00FD0B3628FB
:06007000FC0B362808001D
:1000760083120313E71B4128871242288716671B42
:100086004628071247280716E71A4B2887114C28D7
:100096008715671A5028071151280715441855283F
:1000A60007145628071087142E208710E7195D2895
:1000B60087125E28871667196228071263280716B3
:1000C600E718672887116828871567186C280711AD
:1000D6006D2807154418712807147228071087140D
:1000E6002E208710441C792830207A2813200800F7
:1000F600A1017208031D90287108F2007008F10032
:10010600F001A1157208031D90287108F200F10193
:10011600A1112116720803199E282108F302031D56
:10012600031CA2280310F21BA628F00DF10DF20DF8
:10013600F30B9628A2280130FC001B20A9280230C8
:0E014600FC000320A9280430FC000F20080054
:100154007C18E028FC18B1287C19FF28AA28A101E2
:100164007208031DD1287108F2007008F1007808A4
:10017400F000F801A1157208031DD1287108F200DE
:100184007008F100F001A11121167208031DD12895
:100194007108F200F101A11572080319F32821086E
:1001A400F302031D031CF7280310F21BE028F80DCB
:1001B400F00DF10DF20DF30BD728F7287B1B701C03
:1001C400FB28F81FFB28F00A0319F10A0319F20AA5
:1001D400031DFB28F20CF10CF00CF30A0319FF28A1
:1001E400FB280130FC001B2002290230FC00032004
:1001F40002290430FC000F2002290830FC002220D0
:0402040000000800EE
:100208008312031372087606A100F801F901730836
:100218007702031C27297708FD007308F7007D087B
:10022800F3007608FD007208F6007D08F2007508F4
:10023800FD007108F5007D08F1007408FD007008E4
:10024800F4007D08F00077080319A0297208FA0065
:10025800F217F61777087302F70003195A290830BE
:100268007702031C5029F7007408F9007508F40098
:100278007608F500F60108307702031C5029F700CC
:100288007408F9007508F400F50108307702031CBA
:1002980050297A08F200A029770803195A2903106F
:1002A800F60CF50CF40CF90CF70B5329A11F672970
:1002B800F909F409F509F609F90A0319F40A031901
:1002C800F50A0319F60A7908F80774080318740F71
:1002D800F00775080318750FF10776080318760FED
:1002E800F207A11B8029031C9029F20CF10CF00CD9
:1002F800F80CF30F90299C2903189429F809F009A0
:10030800F109F209F80A0319F00A0319F10A0319A5
:10031800F20A8030FA0698290130FC00AA20A229A6
:100328000230FC00AA20A2290430FC007B20A2296C
:100338000830FC002220A2290030FC000000080040
:1003480083120313FD01F8017008031900347406C1
:10035800FA00FA1BFD09FB01F41FB429F409F40A99
:10036800F01FB829F009F00A70087404FA00FA1BA3
:10037800DC297408F802F00D700DF80D7408F80700
:10038800F00D0630FC00700DF80D74087018F802B6
:10039800701CF807F00DFC0BC729701CF8077B18B8
:1003A800EA29FD1F0034F009F00AF809F80A0034B8
:1003B800F41FE729F01BE4297008F800F001D5299B
:1003C800F001F00A0034F009FB0ABD29F80A7408A4
:1003D8007802031DD529F801F00AF01FD529FF344A
:0203E80008000B
:1003EA007B14FB1F002AF201FA1FFF30F200F10012
:0A03FA00F000FA0DF20CFF300800CD
:06040400FB15FF300800AB
:10040A0083120313FA017308031D7A147708031D74
:10041A00FA147A080319512A033A03191C2A7A187A
:10042A00192AF61F4F2A4D2AF21F4D2A4F2A7208FF
:10043A008039FA00F21376088039F6137A0603191E
:10044A002A2A7A0803194D2A4F2A770873020319B0
:10045A00312A031C452A492A760872020319382AC6
:10046A00031C452A492A7508710203193F2A031CED
:10047A00452A492A740870020319512A0318492A7D
:10048A00FA0803194F2A4D2AFA0803194D2A4F2A46
:10049A0003140800031008000314031508000800D9
:1004AA00831203136508F2007208F100F20A660863
:1004BA00F000E60A700884000008F0007108840061
:1004CA007008800071088400000803196D2A592AEF
:0604DA006508F0000800B7
:1004E00083120313FB017308031D77080319C72A3E
:1004F00072087606FA007708F3077E30031C842A18
:10050000F3020318CA2A872AF302031CCD2A7208B1
:10051000F8007108FC007008FD00F817F6170310CA
:10052000F201F101F0011830A1007D1CA12A74082C
:10053000F00775080318750FF10776080318760F92
:10054000F207F20CF10CF00CF80CFC0CFD0C031093
:10055000A10B952AF21BB12AF80DF00DF10DF20D49
:10056000F3037B1B701CC32AF81FC32AF00A03196C
:10057000F10A0319F20A031DC32AF20CF10CF00C64
:10058000F30A0319CA2AFA1FF2130030CF2A0130E6
:100590001B20CF2A02302220CF2A04300320000063
:0205A000080051
:1005A2008312031344106508E7003B20441408003B
:1005B200FB09FA09F909F809F80A0319F90A0319F2
:0805C200FA0A0319FB0A080004
:1005CA007408F8027508031C750FF9027608031CF3
:1005DA00760FFA027708031C770FFB02F30D073038
:1005EA00FC00730DF80DF90DFA0DFB0D7408731C60
:1005FA000C2BF8027508031C750FF9027608031C08
:10060A00760FFA027708031C770FFB02192BF807FB
:10061A0075080318750FF90776080318760FFA0795
:10062A0077080318770FFB07F30DFC0BF62A720DF8
:10063A00F80DF90DFA0DFB0D7408731C322BF80234
:10064A007508031C750FF9027608031C760FFA0267
:10065A007708031C770FFB023F2BF807750803186E
:10066A00750FF90776080318760FFA077708031843
:10067A00770FFB07F20D0730FC00720DF80DF90D2C
:10068A00FA0DFB0D7408721C582BF8027508031C2E
:10069A00750FF9027608031C760FFA027708031C15
:1006AA00770FFB02652BF80775080318750FF90712
:1006BA0076080318760FFA0777080318770FFB07EF
:1006CA00F20DFC0B422B710DF80DF90DFA0DFB0D15
:1006DA007408721C7E2BF8027508031C750FF90248
:1006EA007608031C760FFA027708031C770FFB02C1
:1006FA008B2BF80775080318750FF9077608031886
:10070A00760FFA0777080318770FFB07F10D073002
:10071A00FC00710DF80DF90DFA0DFB0D7408711C32
:10072A00A42BF8027508031C750FF9027608031C3E
:10073A00760FFA027708031C770FFB02B12BF80732
:10074A0075080318750FF90776080318760FFA0764
:10075A0077080318770FFB07F10DFC0B8E2B700D32
:10076A00F80DF90DFA0DFB0D7408711CCA2BF8026D
:10077A007508031C750FF9027608031C760FFA0236
:10078A007708031C770FFB02D72BF80775080318A5
:10079A00750FF90776080318760FFA077708031812
:1007AA00770FFB07F00D0730FC00700DF80DF90DFF
:1007BA00FA0DFB0D7408701CF02BF8027508031C67
:1007CA00750FF9027608031C760FFA027708031CE4
:1007DA00770FFB02FD2BF80775080318750FF90749
:1007EA0076080318760FFA0777080318770FFB07BE
:1007FA00F00DFC0BDA2B7018102C7408F80775082A
:10080A000318750FF90776080318760FFA077708A1
:08081A000318770FFB0708002B
:0E082200073083120313FD00FD0B152C080098
:0E0830008312031340088A003F08820008006C
:10083E0083120313FB01FC01F80173080319972CB3
:10084E007208FA00F2179E30F302F31F872CF30999
:10085E00F30A08307302031C5C2CF300F80D7008C9
:10086E00F8007108F0007208F100F201083073020E
:10087E00031C5C2CF300F80D7008F8007108F000F2
:10088E00F10108307302031C5C2CF300F80D7008A4
:10089E00F800F00108307302031C5C2CF300F80D15
:1008AE00F8017308031D0310662C73080319662CD8
:1008BE000310F20CF10CF00CF80CF30B5F2C7B1BFD
:1008CE00781C742C031C742CF80A0319F00A0319F3
:1008DE00F10A0319F20AF21B942CFA1F972CF20953
:1008EE00F109F009F809F80A0319F00A0319F10AD7
:1008FE000319F20A972CF201F101F001F801972C7D
:10090E007B14FB1F9A2CF201FA1F9A2CF200F100B5
:10091E00F000F800FA0DF20C9A2C0130FC009C2C21
:10092E000030FC009C2CFF30FC00FC080319A02CAE
:10093E00F5217208F3007108F2007008F1007808D2
:04094E00F0000800AD
:10095200831203137408003A031DC42C7508003A6D
:10096200031DC42C7608003A031DC42C7708003AF4
:10097200031DC42CFF30F000FF30F100FF30F20005
:100982007F30F3005D2D83120313FC01F71BFC0A79
:10099200FD01FB01FA01F901F80173087204710407
:1009A20070040319582D73087706A000A01BFD09D7
:1009B200F71FE62CF409F509F609F709F40A0319F9
:1009C200F50A0319F60A0319F70AF31FF32CF009C3
:1009D200F109F209F309F00A0319F10A0319F20AFB
:1009E2000319F30A73087704A000A01B142DE52253
:1009F200FC1B312DFD1F582DF009F109F209F309F5
:100A0200F00A0319F10A0319F20A0319F30AF809A1
:100A1200F909FA09FB09F80A0319F90A0319FA0A8A
:100A22000319FB0A582DF71F2B2DF31B252D7308D5
:100A3200FB007208FA007108F9007008F800F3016F
:100A4200F201F101F001FB2CF301F201F101F001DD
:100A5200F00A0034F309F209F109F009FC17F82C45
:100A6200F80A0319F90A0319FA0A0319FB0A7408A6
:100A72007802031DFB2C75087902031DFB2C7608F6
:100A82007A02031DFB2C77087B02031DFB2CFB0162
:100A9200FA01F901F801F00A0319F10A0319F20A3D
:100AA2000319F30AF31FFB2CA0012016FF34A00147
:0A0AB2007C1C5C2DD922003E0800D8
:100ABC00702D803083120313D400832DC030D400EA
:100ACC00832D9430D400832DD430D400832D8030EA
:100ADC00D400832D831203135408013A03195F2D9C
:100AEC005408023A0319642D5408033A0319672D6C
:100AFC005408043A03196A2D6D2D5503F00054085F
:100B0C00F0077008D4007008E7003B204410D701B0
:100B1C00570856078400000803199C2D57085607E0
:100B2C0084000008E500D122D70A8E2D4414080059
:0C0B3C00831203138030F6060421080029
:100B4800831203137408003A031DBF2D7508003A79
:100B5800031DBF2D7608003A031DBF2D7708003A04
:100B6800031DBF2DFF30F000FF30F1007F30F20091
:100B7800FF30F3005A2E83120313770803194E2E01
:100B880073080319512E720876068039FA00F21795
:100B9800F617A1017208F8007108FC007008FD0042
:100BA8007408FD027508031C750FFC027608031C07
:100BB800760FF802F801FC01FD01031CEA2D031071
:100BC800F20CF10CF00CF80C0130A1007708F302DC
:100BD800031CF42D7E302107F3070318542EF92D3A
:100BE8007E302107F307031C572E1830FA07FD0D36
:100BF800FC0DF80DF00DF10DF20DA10D7408F002C9
:100C08007508031C750FF1027608031C760FF202B3
:100C1800760DA104211C122E7D141D2E7408F007D8
:100C280075080318750FF10776080318760AF20796
:100C38007D10FA031F307A05031DFB2D7B1B7D1CDD
:100C4800442E0310F00DF10DF20DA10D7408F00201
:100C58007508031C750FF1027608031C760FF20263
:100C6800760D21040139FD070318FC0A0319F80A57
:100C7800031D442EF80CFC0CFD0CF30A0319542E2A
:100C8800FA1FF8137808F2007C08F1007D08F000DC
:100C98000030592E01300222592E02301B20592EC5
:0E0CA80004302220592E0830032000000800DE
:100CB600831203137008F8007108F000F101F201C5
:100CC600F301FB01FC019630F300FA01F01F712ECF
:100CD600F809F009F80A0319F00AFA177008F10082
:0C0CE6007808F000F801F2017B20080003
:100CF20083120313FB01FA01F9018030F800F10CB1
:100D0200F00C031C8D2E7408F90775080318750F73
:100D1200FA070318FB0A0310F01F952E7408FA074E
:100D220075080318750FFB07FB0CFA0CF90CF80C8D
:100D3200031C802E7B08F3007A08F2007908F10088
:060D42007808F000080033
:100D480083160313871007100711871107128712DC
:100D58008312871007108712071287110711302096
:100D6800302030208715071587142E208710302053
:100D780087142E208710302087142E2087103020CB
:100D8800071187142E208710302087142E208710F3
:100D98008711871687142E20871030208712071591
:100DA80087142E208710071187142E2087103020D3
:100DB80087142E208710071587142E2087103020BF
:100DC800071187142E208710871607168715071511
:0C0DD80087142E208710302044140800DF
:100DE400831203139F01C0309F042C09F000700884
:100DF40083169F051F179F1783125408F000F00DE8
:100E04007010F00D7010F00D701070089F041F1416
:100E140011241F151F1D102F00000C2F1F101E085A
:100E2400F100F00183161E08F0040030F1040800FC
:100E3400FF3083120313C100FF30C200FF30C30030
:100E4400FF309F01C0309F042C09F0007008831606
:0C0E54009F051F179F1783121F14080032
:100E6000831203137008F8007108F0007208F10093
:100E70007308F200F301FB01FC019E30F300FA015C
:100E8000F21F4E2FF809F009F109F209F80A0319C7
:100E9000F00A0319F10A0319F20AFA170230FC00EA
:040EA000AA2008007C
:100EA40018248A110A128000840ABF0A0319C00A8E
:080EB400F003031D522F08009A
:100EE40022308400133083120313F0005E30BF00FD
:080EF4000730C000522708007E
:1010000083120313E001E101E201E301E40154086A
:10101000DC005508DD005608DE005708DF005F08D9
:10102000FF3A031D1D285E08FF3A031D1D285D08B9
:10103000FF3A031D1D285C08FF3A031D29285808A4
:10104000E5002230E6008A1155228A150330F000AF
:10105000852A0130DA00DE1F392880305E06F00074
:101060007008DE00DA0AE10A580884002D3080009A
:10107000D80A0030F0005F06031D482870085E069D
:10108000031D482870085D06031D48285C08003AC7
:10109000031D53285808E5002630E6008A11552222
:1010A0008A15F001852A5F08FF3A031D61285E0852
:1010B000003A031D61285D08003A031D61285C08A1
:1010C000003A031D6D285808E5002830E6008A1113
:1010D00055228A155A08F000852A0030F4000030A5
:1010E000F5000030F6007F30F7005C08F0005D0886
:1010F000F1005E08F2005F08F3008A1105228A15EC
:10110000013003180030F00070080319A4285C08AF
:10111000F0005D08F1005E08F2005F08F3000030A7
:10112000F4000030F5002030F6008230F7008A111C
:1011300070228A157008DC007108DD007208DE007C
:101140007308DF00E4036D280030F4000030F50080
:101150002030F6008230F7005C08F0005D08F100F6
:101160005E08F2005F08F3008A1105228A1501303B
:10117000031C0030F00070080319DB285C08F00045
:101180005D08F1005E08F2005F08F300CD30F40066
:10119000CC30F5004C30F6007B30F7008A1170221D
:1011A0008A157008DC007108DD007208DE00730823
:1011B000DF00E40AA428FF305C05F800FF305D057D
:1011C000F9007F305E05FA0000305F05FB0078080B
:1011D000F4007908F5007A08F6007B08F700F40DB2
:1011E000F50DF60DF70D741000305C05F0000030C1
:1011F0005D05F10000305E05F200FF305F05F30091
:101200007008DC007108DD007208DE007308DF0082
:1012100074085C04F00075085D04F10076085E0453
:10122000F20077085F04F3007008DC007108DD004D
:101230007208DE007308DF007F305F02F000700884
:10124000DB000130DF007008F4005C08F0005D088E
:10125000F1005E08F2005F08F300740803193729F3
:10126000F00DF10DF20DF30D7010FF3E2E297008F8
:10127000DC007108DD007208DE007308DF005F0823
:10128000303EF0005808840070088000D80AE10A57
:1012900080306406F0008030013A7002031C592946
:1012A0008030063AF000803064067002031C592931
:1012B0006129580884002E308000D80A0130E000EF
:1012C000E10A0630DB005B08003A0319C329DF019D
:1012D0005C08F0005D08F1005E08F2005F08F300B2
:1012E000F00DF10DF20DF30D7010F00DF10DF20D8A
:1012F000F30D70105C08F0075D0803185D0FF1072F
:101300005E0803185E0FF2075F0803185F0FF3070C
:101310007008DC007108DD007208DE007308DF0071
:101320005C08F0005D08F1005E08F2005F08F30061
:10133000F00DF10DF20DF30D70107008DC00710866
:10134000DD007208DE007308DF005F08303EF00049
:101350005808840070088000D80AE10A6008003A42
:10136000031DC129E4036408003A031DC1290130AB
:10137000E300580884002E308000D80A0130E000D5
:10138000E10ADB0363296308013A031DC829E1036D
:10139000FF305807840000082E3A031DD129D803D6
:1013A000E1038030003AF0008030640670020318D8
:1013B000DB290130E20080306406F0008030003A22
:1013C00070020318E5290230E2006408DB00803077
:1013D000093AF000803064067002031CF129E20A29
:1013E000F3290230E20762086107F100F2010318F5
:1013F000F20A80307206F00080307002031D022A6B
:101400005908710203180B2A5808840030308000F4
:10141000D80AE10AF3296408003A03194C2A58084B
:10142000840065308000D80A80306406F000803087
:10143000003A70020318242A580884002D308000D6
:10144000D80A6408003CE4006408DB008030093AF4
:10145000F00080306406700203183C2A0A30F40061
:101460005B08F0008A11A4218A153030F007580873
:10147000840070088000D80A0A30F4005B08F0008D
:101480008A11A4218A157808F0003030F007580836
:10149000840070088000D80A62086107F0007008B4
:1014A000E10059087002F1007108DB008030003A59
:1014B000F00080307106700203186A2A8030003A0A
:1014C000F00080305B0670020318692ADB03D80342
:1014D0005E2A812A80305B06F0008030003A70027C
:1014E0000318812A80305B06F0008030003A7002D9
:1014F0000318812ADB0A5808840030308000D80A9B
:0C150000722A580884008001F0010800E5
:10150C008A1172278A15831203139F111F169F12BB
:10151C00FF30831685008A111A278A158230FC0049
:10152C00DD30FD00FD0B982AFC0B982A0000000012
:10153C008A11A4268A150130E7008A113B208A15EE
:10154C000C30E7008A113B208A150230D4008A1136
:10155C00F2268A1570088312B5007108B6000530A2
:10156C00F4000030F5008A1179268A158A115B2661
:10157C008A150030F4000030F5000030F600893098
:10158C00F7008A11A4258A157008D0007108D100C3
:10159C007208D2007308D3005008BB005108BC007D
:1015AC005208BD005308BE000030F0004030F1007E
:1015BC001C30F2008C30F3005008F4005108F50098
:1015CC005208F6005308F7008A1170228A15700829
:1015DC00CC007108CD007208CE007308CF00500803
:1015EC00F4005108F5005208F6005308F7000030DB
:1015FC00F0000030F1002030F2008130F3008A114D
:10160C009E258A157008F4007108F5007208F60022
:10161C007308F7004C08F0004D08F1004E08F2007A
:10162C004F08F3008A11A4258A158A111F248A15E4
:10163C007008B7007108B8007208B9007308BA00D6
:10164C008030F400803073067402031D372B72084F
:10165C00003C031D372B7108033C031D372B70080E
:10166C00E83C03185C2BE830F4000330F500F6017D
:10167C00F7013708F0003808F1003908F2003A0891
:10168C00F3008A11A9248A157008B7007108B800F4
:10169C007208B9007308BA000130D4000530D500C7
:1016AC002F30D6008A115E258A15652B0130D400A7
:1016BC000A30D5002D30D6008A115E258A153708E0
:1016CC00F0003808F1003908F2003A08F3008A11EA
:1016DC0030278A157008D4007108D5007208D6001E
:1016EC007308D7004530D8000530D90000200130F0
:1016FC00D4000130D5003130D6008A115E258A1510
:10170C000130D4000330D5004530D6008A115E2557
:10171C008A150330FB008A30FC005530FD00FD0BB0
:10172C00952BFC0B952BFB0B952B00000000AB2A8B
:02173C009E2BE2
:080EBC004E3461344E34003461
:040EC4003034003492
:080EC80049344E344634003475
:020ED0000F34DD
:040ED200453400346F
:040ED6004B34003465
:080EDA0052343D342034003491
:02400E004A2F37
:00000001FF
